{
  "_format": "hh-sol-artifact-1",
  "contractName": "TodoList",
  "sourceName": "contracts/TodoList.sol",
  "abi": [
    {
      "inputs": [
        {
          "internalType": "string",
          "name": "_itemTitle",
          "type": "string"
        }
      ],
      "name": "addItem",
      "outputs": [],
      "stateMutability": "payable",
      "type": "function"
    },
    {
      "inputs": [
        {
          "internalType": "address",
          "name": "",
          "type": "address"
        }
      ],
      "name": "amountLocked",
      "outputs": [
        {
          "internalType": "uint256",
          "name": "",
          "type": "uint256"
        }
      ],
      "stateMutability": "view",
      "type": "function"
    },
    {
      "inputs": [],
      "name": "deleteList",
      "outputs": [],
      "stateMutability": "nonpayable",
      "type": "function"
    },
    {
      "inputs": [
        {
          "internalType": "uint256",
          "name": "_taskIndex",
          "type": "uint256"
        }
      ],
      "name": "finishItem",
      "outputs": [],
      "stateMutability": "nonpayable",
      "type": "function"
    },
    {
      "inputs": [],
      "name": "getList",
      "outputs": [
        {
          "components": [
            {
              "internalType": "string",
              "name": "title",
              "type": "string"
            },
            {
              "internalType": "bool",
              "name": "done",
              "type": "bool"
            }
          ],
          "internalType": "struct TodoList.Item[]",
          "name": "",
          "type": "tuple[]"
        }
      ],
      "stateMutability": "view",
      "type": "function"
    },
    {
      "inputs": [],
      "name": "getNumTodo",
      "outputs": [
        {
          "internalType": "uint256",
          "name": "num",
          "type": "uint256"
        }
      ],
      "stateMutability": "view",
      "type": "function"
    },
    {
      "inputs": [
        {
          "internalType": "address",
          "name": "",
          "type": "address"
        },
        {
          "internalType": "uint256",
          "name": "",
          "type": "uint256"
        }
      ],
      "name": "todoList",
      "outputs": [
        {
          "internalType": "string",
          "name": "title",
          "type": "string"
        },
        {
          "internalType": "bool",
          "name": "done",
          "type": "bool"
        }
      ],
      "stateMutability": "view",
      "type": "function"
    }
  ],
  "bytecode": "0x608060405234801561001057600080fd5b5061141a806100206000396000f3fe6080604052600436106100705760003560e01c8063942b765a1161004e578063942b765a146100d3578063a5e4f21a146100fe578063f6c788b21461013c578063fbe06bd81461017957610070565b806327e9f2941461007557806330df2e1a1461009157806393801acb146100bc575b600080fd5b61008f600480360381019061008a9190610c40565b6101a2565b005b34801561009d57600080fd5b506100a661037d565b6040516100b39190610ca2565b60405180910390f35b3480156100c857600080fd5b506100d1610475565b005b3480156100df57600080fd5b506100e861063c565b6040516100f59190610e5f565b60405180910390f35b34801561010a57600080fd5b5061012560048036038101906101209190610f0b565b610784565b604051610133929190610fa4565b60405180910390f35b34801561014857600080fd5b50610163600480360381019061015e9190610fd4565b61085a565b6040516101709190610ca2565b60405180910390f35b34801561018557600080fd5b506101a0600480360381019061019b9190611001565b610872565b005b60008060003373ffffffffffffffffffffffffffffffffffffffff1673ffffffffffffffffffffffffffffffffffffffff168152602001908152602001600020805490501415610278576000341161022f576040517f08c379a0000000000000000000000000000000000000000000000000000000008152600401610226906110a0565b60405180910390fd5b34600160003373ffffffffffffffffffffffffffffffffffffffff1673ffffffffffffffffffffffffffffffffffffffff168152602001908152602001600020819055506102bc565b600034146102bb576040517f08c379a00000000000000000000000000000000000000000000000000000000081526004016102b29061110c565b60405180910390fd5b5b6000803373ffffffffffffffffffffffffffffffffffffffff1673ffffffffffffffffffffffffffffffffffffffff168152602001908152602001600020604051806040016040528083815260200160001515815250908060018154018082558091505060019003906000526020600020906002020160009091909190915060008201518160000190805190602001906103579291906109a4565b5060208201518160010160006101000a81548160ff021916908315150217905550505050565b6000806000905060005b6000803373ffffffffffffffffffffffffffffffffffffffff1673ffffffffffffffffffffffffffffffffffffffff1681526020019081526020016000208054905081101561046d57600015156000803373ffffffffffffffffffffffffffffffffffffffff1673ffffffffffffffffffffffffffffffffffffffff16815260200190815260200160002082815481106104245761042361112c565b5b906000526020600020906002020160010160009054906101000a900460ff161515141561045a5781806104569061118a565b9250505b80806104659061118a565b915050610387565b508091505090565b600061047f61037d565b146104bf576040517f08c379a00000000000000000000000000000000000000000000000000000000081526004016104b690611245565b60405180910390fd5b6000803373ffffffffffffffffffffffffffffffffffffffff1673ffffffffffffffffffffffffffffffffffffffff16815260200190815260200160002060006105099190610a2a565b6000600160003373ffffffffffffffffffffffffffffffffffffffff1673ffffffffffffffffffffffffffffffffffffffff1681526020019081526020016000208190555060003373ffffffffffffffffffffffffffffffffffffffff16600160003373ffffffffffffffffffffffffffffffffffffffff1673ffffffffffffffffffffffffffffffffffffffff168152602001908152602001600020546040516105b390611296565b60006040518083038185875af1925050503d80600081146105f0576040519150601f19603f3d011682016040523d82523d6000602084013e6105f5565b606091505b5050905080610639576040517f08c379a0000000000000000000000000000000000000000000000000000000008152600401610630906112f7565b60405180910390fd5b50565b60606000803373ffffffffffffffffffffffffffffffffffffffff1673ffffffffffffffffffffffffffffffffffffffff168152602001908152602001600020805480602002602001604051908101604052809291908181526020016000905b8282101561077b57838290600052602060002090600202016040518060400160405290816000820180546106cf90611346565b80601f01602080910402602001604051908101604052809291908181526020018280546106fb90611346565b80156107485780601f1061071d57610100808354040283529160200191610748565b820191906000526020600020905b81548152906001019060200180831161072b57829003601f168201915b505050505081526020016001820160009054906101000a900460ff1615151515815250508152602001906001019061069c565b50505050905090565b600060205281600052604060002081815481106107a057600080fd5b9060005260206000209060020201600091509150508060000180546107c490611346565b80601f01602080910402602001604051908101604052809291908181526020018280546107f090611346565b801561083d5780601f106108125761010080835404028352916020019161083d565b820191906000526020600020905b81548152906001019060200180831161082057829003601f168201915b5050505050908060010160009054906101000a900460ff16905082565b60016020528060005260406000206000915090505481565b600015156000803373ffffffffffffffffffffffffffffffffffffffff1673ffffffffffffffffffffffffffffffffffffffff16815260200190815260200160002082815481106108c6576108c561112c565b5b906000526020600020906002020160010160009054906101000a900460ff16151514610927576040517f08c379a000000000000000000000000000000000000000000000000000000000815260040161091e906113c4565b60405180910390fd5b60016000803373ffffffffffffffffffffffffffffffffffffffff1673ffffffffffffffffffffffffffffffffffffffff16815260200190815260200160002082815481106109795761097861112c565b5b906000526020600020906002020160010160006101000a81548160ff02191690831515021790555050565b8280546109b090611346565b90600052602060002090601f0160209004810192826109d25760008555610a19565b82601f106109eb57805160ff1916838001178555610a19565b82800160010185558215610a19579182015b82811115610a185782518255916020019190600101906109fd565b5b509050610a269190610a4e565b5090565b5080546000825560020290600052602060002090810190610a4b9190610a6b565b50565b5b80821115610a67576000816000905550600101610a4f565b5090565b5b80821115610aa25760008082016000610a859190610aa6565b6001820160006101000a81549060ff021916905550600201610a6c565b5090565b508054610ab290611346565b6000825580601f10610ac45750610ae3565b601f016020900490600052602060002090810190610ae29190610a4e565b5b50565b6000604051905090565b600080fd5b600080fd5b600080fd5b600080fd5b6000601f19601f8301169050919050565b7f4e487b7100000000000000000000000000000000000000000000000000000000600052604160045260246000fd5b610b4d82610b04565b810181811067ffffffffffffffff82111715610b6c57610b6b610b15565b5b80604052505050565b6000610b7f610ae6565b9050610b8b8282610b44565b919050565b600067ffffffffffffffff821115610bab57610baa610b15565b5b610bb482610b04565b9050602081019050919050565b82818337600083830152505050565b6000610be3610bde84610b90565b610b75565b905082815260208101848484011115610bff57610bfe610aff565b5b610c0a848285610bc1565b509392505050565b600082601f830112610c2757610c26610afa565b5b8135610c37848260208601610bd0565b91505092915050565b600060208284031215610c5657610c55610af0565b5b600082013567ffffffffffffffff811115610c7457610c73610af5565b5b610c8084828501610c12565b91505092915050565b6000819050919050565b610c9c81610c89565b82525050565b6000602082019050610cb76000830184610c93565b92915050565b600081519050919050565b600082825260208201905092915050565b6000819050602082019050919050565b600081519050919050565b600082825260208201905092915050565b60005b83811015610d23578082015181840152602081019050610d08565b83811115610d32576000848401525b50505050565b6000610d4382610ce9565b610d4d8185610cf4565b9350610d5d818560208601610d05565b610d6681610b04565b840191505092915050565b60008115159050919050565b610d8681610d71565b82525050565b60006040830160008301518482036000860152610da98282610d38565b9150506020830151610dbe6020860182610d7d565b508091505092915050565b6000610dd58383610d8c565b905092915050565b6000602082019050919050565b6000610df582610cbd565b610dff8185610cc8565b935083602082028501610e1185610cd9565b8060005b85811015610e4d5784840389528151610e2e8582610dc9565b9450610e3983610ddd565b925060208a01995050600181019050610e15565b50829750879550505050505092915050565b60006020820190508181036000830152610e798184610dea565b905092915050565b600073ffffffffffffffffffffffffffffffffffffffff82169050919050565b6000610eac82610e81565b9050919050565b610ebc81610ea1565b8114610ec757600080fd5b50565b600081359050610ed981610eb3565b92915050565b610ee881610c89565b8114610ef357600080fd5b50565b600081359050610f0581610edf565b92915050565b60008060408385031215610f2257610f21610af0565b5b6000610f3085828601610eca565b9250506020610f4185828601610ef6565b9150509250929050565b600082825260208201905092915050565b6000610f6782610ce9565b610f718185610f4b565b9350610f81818560208601610d05565b610f8a81610b04565b840191505092915050565b610f9e81610d71565b82525050565b60006040820190508181036000830152610fbe8185610f5c565b9050610fcd6020830184610f95565b9392505050565b600060208284031215610fea57610fe9610af0565b5b6000610ff884828501610eca565b91505092915050565b60006020828403121561101757611016610af0565b5b600061102584828501610ef6565b91505092915050565b7f4d757374206c6f636b2075702066756e647320746f206d616b652061206e657760008201527f206c697374000000000000000000000000000000000000000000000000000000602082015250565b600061108a602583610f4b565b91506110958261102e565b604082019050919050565b600060208201905081810360008301526110b98161107d565b9050919050565b7f596f75206861766520616c7265616479206c6f636b65642066756e6473000000600082015250565b60006110f6601d83610f4b565b9150611101826110c0565b602082019050919050565b60006020820190508181036000830152611125816110e9565b9050919050565b7f4e487b7100000000000000000000000000000000000000000000000000000000600052603260045260246000fd5b7f4e487b7100000000000000000000000000000000000000000000000000000000600052601160045260246000fd5b600061119582610c89565b91507fffffffffffffffffffffffffffffffffffffffffffffffffffffffffffffffff8214156111c8576111c761115b565b5b600182019050919050565b7f4d7573742066696e69736820616c6c206974656d7320696e20796f7572206c6960008201527f7374000000000000000000000000000000000000000000000000000000000000602082015250565b600061122f602283610f4b565b915061123a826111d3565b604082019050919050565b6000602082019050818103600083015261125e81611222565b9050919050565b600081905092915050565b50565b6000611280600083611265565b915061128b82611270565b600082019050919050565b60006112a182611273565b9150819050919050565b7f4661696c656420746f2073656e64204574686572000000000000000000000000600082015250565b60006112e1601483610f4b565b91506112ec826112ab565b602082019050919050565b60006020820190508181036000830152611310816112d4565b9050919050565b7f4e487b7100000000000000000000000000000000000000000000000000000000600052602260045260246000fd5b6000600282049050600182168061135e57607f821691505b6020821081141561137257611371611317565b5b50919050565b7f5461736b2063616e74206265206d61726b20636f6d706c657465000000000000600082015250565b60006113ae601a83610f4b565b91506113b982611378565b602082019050919050565b600060208201905081810360008301526113dd816113a1565b905091905056fea26469706673582212200dde3e8c29705805ca4769a1f689c5a5927ba904faa5edc70cc8b924d71c528564736f6c634300080a0033",
  "linkReferences": {},
  "deployedLinkReferences": {}
}